{
  "_format": "hh-sol-artifact-1",
  "contractName": "MyGovernorTL",
  "sourceName": "contracts/MyGovernorTL.sol",
  "abi": [
    {
      "inputs": [
        {
          "internalType": "contract IVotes",
          "name": "_token",
          "type": "address"
        },
        {
          "internalType": "contract TimelockController",
          "name": "_timelock",
          "type": "address"
        }
      ],
      "stateMutability": "nonpayable",
      "type": "constructor"
    },
    {
      "inputs": [],
      "name": "CheckpointUnorderedInsertion",
      "type": "error"
    },
    {
      "inputs": [],
      "name": "FailedInnerCall",
      "type": "error"
    },
    {
      "inputs": [
        {
          "internalType": "address",
          "name": "voter",
          "type": "address"
        }
      ],
      "name": "GovernorAlreadyCastVote",
      "type": "error"
    },
    {
      "inputs": [
        {
          "internalType": "uint256",
          "name": "proposalId",
          "type": "uint256"
        }
      ],
      "name": "GovernorAlreadyQueuedProposal",
      "type": "error"
    },
    {
      "inputs": [],
      "name": "GovernorDisabledDeposit",
      "type": "error"
    },
    {
      "inputs": [
        {
          "internalType": "address",
          "name": "proposer",
          "type": "address"
        },
        {
          "internalType": "uint256",
          "name": "votes",
          "type": "uint256"
        },
        {
          "internalType": "uint256",
          "name": "threshold",
          "type": "uint256"
        }
      ],
      "name": "GovernorInsufficientProposerVotes",
      "type": "error"
    },
    {
      "inputs": [
        {
          "internalType": "uint256",
          "name": "targets",
          "type": "uint256"
        },
        {
          "internalType": "uint256",
          "name": "calldatas",
          "type": "uint256"
        },
        {
          "internalType": "uint256",
          "name": "values",
          "type": "uint256"
        }
      ],
      "name": "GovernorInvalidProposalLength",
      "type": "error"
    },
    {
      "inputs": [
        {
          "internalType": "uint256",
          "name": "quorumNumerator",
          "type": "uint256"
        },
        {
          "internalType": "uint256",
          "name": "quorumDenominator",
          "type": "uint256"
        }
      ],
      "name": "GovernorInvalidQuorumFraction",
      "type": "error"
    },
    {
      "inputs": [
        {
          "internalType": "address",
          "name": "voter",
          "type": "address"
        }
      ],
      "name": "GovernorInvalidSignature",
      "type": "error"
    },
    {
      "inputs": [],
      "name": "GovernorInvalidVoteType",
      "type": "error"
    },
    {
      "inputs": [
        {
          "internalType": "uint256",
          "name": "votingPeriod",
          "type": "uint256"
        }
      ],
      "name": "GovernorInvalidVotingPeriod",
      "type": "error"
    },
    {
      "inputs": [
        {
          "internalType": "uint256",
          "name": "proposalId",
          "type": "uint256"
        }
      ],
      "name": "GovernorNonexistentProposal",
      "type": "error"
    },
    {
      "inputs": [
        {
          "internalType": "uint256",
          "name": "proposalId",
          "type": "uint256"
        }
      ],
      "name": "GovernorNotQueuedProposal",
      "type": "error"
    },
    {
      "inputs": [
        {
          "internalType": "address",
          "name": "account",
          "type": "address"
        }
      ],
      "name": "GovernorOnlyExecutor",
      "type": "error"
    },
    {
      "inputs": [
        {
          "internalType": "address",
          "name": "account",
          "type": "address"
        }
      ],
      "name": "GovernorOnlyProposer",
      "type": "error"
    },
    {
      "inputs": [],
      "name": "GovernorQueueNotImplemented",
      "type": "error"
    },
    {
      "inputs": [
        {
          "internalType": "address",
          "name": "proposer",
          "type": "address"
        }
      ],
      "name": "GovernorRestrictedProposer",
      "type": "error"
    },
    {
      "inputs": [
        {
          "internalType": "uint256",
          "name": "proposalId",
          "type": "uint256"
        },
        {
          "internalType": "enum IGovernor.ProposalState",
          "name": "current",
          "type": "uint8"
        },
        {
          "internalType": "bytes32",
          "name": "expectedStates",
          "type": "bytes32"
        }
      ],
      "name": "GovernorUnexpectedProposalState",
      "type": "error"
    },
    {
      "inputs": [
        {
          "internalType": "address",
          "name": "account",
          "type": "address"
        },
        {
          "internalType": "uint256",
          "name": "currentNonce",
          "type": "uint256"
        }
      ],
      "name": "InvalidAccountNonce",
      "type": "error"
    },
    {
      "inputs": [],
      "name": "InvalidShortString",
      "type": "error"
    },
    {
      "inputs": [],
      "name": "QueueEmpty",
      "type": "error"
    },
    {
      "inputs": [],
      "name": "QueueFull",
      "type": "error"
    },
    {
      "inputs": [
        {
          "internalType": "uint8",
          "name": "bits",
          "type": "uint8"
        },
        {
          "internalType": "uint256",
          "name": "value",
          "type": "uint256"
        }
      ],
      "name": "SafeCastOverflowedUintDowncast",
      "type": "error"
    },
    {
      "inputs": [
        {
          "internalType": "string",
          "name": "str",
          "type": "string"
        }
      ],
      "name": "StringTooLong",
      "type": "error"
    },
    {
      "anonymous": false,
      "inputs": [],
      "name": "EIP712DomainChanged",
      "type": "event"
    },
    {
      "anonymous": false,
      "inputs": [
        {
          "indexed": false,
          "internalType": "uint256",
          "name": "proposalId",
          "type": "uint256"
        }
      ],
      "name": "ProposalCanceled",
      "type": "event"
    },
    {
      "anonymous": false,
      "inputs": [
        {
          "indexed": false,
          "internalType": "uint256",
          "name": "proposalId",
          "type": "uint256"
        },
        {
          "indexed": false,
          "internalType": "address",
          "name": "proposer",
          "type": "address"
        },
        {
          "indexed": false,
          "internalType": "address[]",
          "name": "targets",
          "type": "address[]"
        },
        {
          "indexed": false,
          "internalType": "uint256[]",
          "name": "values",
          "type": "uint256[]"
        },
        {
          "indexed": false,
          "internalType": "string[]",
          "name": "signatures",
          "type": "string[]"
        },
        {
          "indexed": false,
          "internalType": "bytes[]",
          "name": "calldatas",
          "type": "bytes[]"
        },
        {
          "indexed": false,
          "internalType": "uint256",
          "name": "voteStart",
          "type": "uint256"
        },
        {
          "indexed": false,
          "internalType": "uint256",
          "name": "voteEnd",
          "type": "uint256"
        },
        {
          "indexed": false,
          "internalType": "string",
          "name": "description",
          "type": "string"
        }
      ],
      "name": "ProposalCreated",
      "type": "event"
    },
    {
      "anonymous": false,
      "inputs": [
        {
          "indexed": false,
          "internalType": "uint256",
          "name": "proposalId",
          "type": "uint256"
        }
      ],
      "name": "ProposalExecuted",
      "type": "event"
    },
    {
      "anonymous": false,
      "inputs": [
        {
          "indexed": false,
          "internalType": "uint256",
          "name": "proposalId",
          "type": "uint256"
        },
        {
          "indexed": false,
          "internalType": "uint256",
          "name": "etaSeconds",
          "type": "uint256"
        }
      ],
      "name": "ProposalQueued",
      "type": "event"
    },
    {
      "anonymous": false,
      "inputs": [
        {
          "indexed": false,
          "internalType": "uint256",
          "name": "oldProposalThreshold",
          "type": "uint256"
        },
        {
          "indexed": false,
          "internalType": "uint256",
          "name": "newProposalThreshold",
          "type": "uint256"
        }
      ],
      "name": "ProposalThresholdSet",
      "type": "event"
    },
    {
      "anonymous": false,
      "inputs": [
        {
          "indexed": false,
          "internalType": "uint256",
          "name": "oldQuorumNumerator",
          "type": "uint256"
        },
        {
          "indexed": false,
          "internalType": "uint256",
          "name": "newQuorumNumerator",
          "type": "uint256"
        }
      ],
      "name": "QuorumNumeratorUpdated",
      "type": "event"
    },
    {
      "anonymous": false,
      "inputs": [
        {
          "indexed": false,
          "internalType": "address",
          "name": "oldTimelock",
          "type": "address"
        },
        {
          "indexed": false,
          "internalType": "address",
          "name": "newTimelock",
          "type": "address"
        }
      ],
      "name": "TimelockChange",
      "type": "event"
    },
    {
      "anonymous": false,
      "inputs": [
        {
          "indexed": true,
          "internalType": "address",
          "name": "voter",
          "type": "address"
        },
        {
          "indexed": false,
          "internalType": "uint256",
          "name": "proposalId",
          "type": "uint256"
        },
        {
          "indexed": false,
          "internalType": "uint8",
          "name": "support",
          "type": "uint8"
        },
        {
          "indexed": false,
          "internalType": "uint256",
          "name": "weight",
          "type": "uint256"
        },
        {
          "indexed": false,
          "internalType": "string",
          "name": "reason",
          "type": "string"
        }
      ],
      "name": "VoteCast",
      "type": "event"
    },
    {
      "anonymous": false,
      "inputs": [
        {
          "indexed": true,
          "internalType": "address",
          "name": "voter",
          "type": "address"
        },
        {
          "indexed": false,
          "internalType": "uint256",
          "name": "proposalId",
          "type": "uint256"
        },
        {
          "indexed": false,
          "internalType": "uint8",
          "name": "support",
          "type": "uint8"
        },
        {
          "indexed": false,
          "internalType": "uint256",
          "name": "weight",
          "type": "uint256"
        },
        {
          "indexed": false,
          "internalType": "string",
          "name": "reason",
          "type": "string"
        },
        {
          "indexed": false,
          "internalType": "bytes",
          "name": "params",
          "type": "bytes"
        }
      ],
      "name": "VoteCastWithParams",
      "type": "event"
    },
    {
      "anonymous": false,
      "inputs": [
        {
          "indexed": false,
          "internalType": "uint256",
          "name": "oldVotingDelay",
          "type": "uint256"
        },
        {
          "indexed": false,
          "internalType": "uint256",
          "name": "newVotingDelay",
          "type": "uint256"
        }
      ],
      "name": "VotingDelaySet",
      "type": "event"
    },
    {
      "anonymous": false,
      "inputs": [
        {
          "indexed": false,
          "internalType": "uint256",
          "name": "oldVotingPeriod",
          "type": "uint256"
        },
        {
          "indexed": false,
          "internalType": "uint256",
          "name": "newVotingPeriod",
          "type": "uint256"
        }
      ],
      "name": "VotingPeriodSet",
      "type": "event"
    },
    {
      "inputs": [],
      "name": "BALLOT_TYPEHASH",
      "outputs": [
        {
          "internalType": "bytes32",
          "name": "",
          "type": "bytes32"
        }
      ],
      "stateMutability": "view",
      "type": "function"
    },
    {
      "inputs": [],
      "name": "CLOCK_MODE",
      "outputs": [
        {
          "internalType": "string",
          "name": "",
          "type": "string"
        }
      ],
      "stateMutability": "view",
      "type": "function"
    },
    {
      "inputs": [],
      "name": "COUNTING_MODE",
      "outputs": [
        {
          "internalType": "string",
          "name": "",
          "type": "string"
        }
      ],
      "stateMutability": "pure",
      "type": "function"
    },
    {
      "inputs": [],
      "name": "EXTENDED_BALLOT_TYPEHASH",
      "outputs": [
        {
          "internalType": "bytes32",
          "name": "",
          "type": "bytes32"
        }
      ],
      "stateMutability": "view",
      "type": "function"
    },
    {
      "inputs": [
        {
          "internalType": "address[]",
          "name": "targets",
          "type": "address[]"
        },
        {
          "internalType": "uint256[]",
          "name": "values",
          "type": "uint256[]"
        },
        {
          "internalType": "bytes[]",
          "name": "calldatas",
          "type": "bytes[]"
        },
        {
          "internalType": "bytes32",
          "name": "descriptionHash",
          "type": "bytes32"
        }
      ],
      "name": "cancel",
      "outputs": [
        {
          "internalType": "uint256",
          "name": "",
          "type": "uint256"
        }
      ],
      "stateMutability": "nonpayable",
      "type": "function"
    },
    {
      "inputs": [
        {
          "internalType": "uint256",
          "name": "proposalId",
          "type": "uint256"
        },
        {
          "internalType": "uint8",
          "name": "support",
          "type": "uint8"
        }
      ],
      "name": "castVote",
      "outputs": [
        {
          "internalType": "uint256",
          "name": "",
          "type": "uint256"
        }
      ],
      "stateMutability": "nonpayable",
      "type": "function"
    },
    {
      "inputs": [
        {
          "internalType": "uint256",
          "name": "proposalId",
          "type": "uint256"
        },
        {
          "internalType": "uint8",
          "name": "support",
          "type": "uint8"
        },
        {
          "internalType": "address",
          "name": "voter",
          "type": "address"
        },
        {
          "internalType": "bytes",
          "name": "signature",
          "type": "bytes"
        }
      ],
      "name": "castVoteBySig",
      "outputs": [
        {
          "internalType": "uint256",
          "name": "",
          "type": "uint256"
        }
      ],
      "stateMutability": "nonpayable",
      "type": "function"
    },
    {
      "inputs": [
        {
          "internalType": "uint256",
          "name": "proposalId",
          "type": "uint256"
        },
        {
          "internalType": "uint8",
          "name": "support",
          "type": "uint8"
        },
        {
          "internalType": "string",
          "name": "reason",
          "type": "string"
        }
      ],
      "name": "castVoteWithReason",
      "outputs": [
        {
          "internalType": "uint256",
          "name": "",
          "type": "uint256"
        }
      ],
      "stateMutability": "nonpayable",
      "type": "function"
    },
    {
      "inputs": [
        {
          "internalType": "uint256",
          "name": "proposalId",
          "type": "uint256"
        },
        {
          "internalType": "uint8",
          "name": "support",
          "type": "uint8"
        },
        {
          "internalType": "string",
          "name": "reason",
          "type": "string"
        },
        {
          "internalType": "bytes",
          "name": "params",
          "type": "bytes"
        }
      ],
      "name": "castVoteWithReasonAndParams",
      "outputs": [
        {
          "internalType": "uint256",
          "name": "",
          "type": "uint256"
        }
      ],
      "stateMutability": "nonpayable",
      "type": "function"
    },
    {
      "inputs": [
        {
          "internalType": "uint256",
          "name": "proposalId",
          "type": "uint256"
        },
        {
          "internalType": "uint8",
          "name": "support",
          "type": "uint8"
        },
        {
          "internalType": "address",
          "name": "voter",
          "type": "address"
        },
        {
          "internalType": "string",
          "name": "reason",
          "type": "string"
        },
        {
          "internalType": "bytes",
          "name": "params",
          "type": "bytes"
        },
        {
          "internalType": "bytes",
          "name": "signature",
          "type": "bytes"
        }
      ],
      "name": "castVoteWithReasonAndParamsBySig",
      "outputs": [
        {
          "internalType": "uint256",
          "name": "",
          "type": "uint256"
        }
      ],
      "stateMutability": "nonpayable",
      "type": "function"
    },
    {
      "inputs": [],
      "name": "clock",
      "outputs": [
        {
          "internalType": "uint48",
          "name": "",
          "type": "uint48"
        }
      ],
      "stateMutability": "view",
      "type": "function"
    },
    {
      "inputs": [],
      "name": "eip712Domain",
      "outputs": [
        {
          "internalType": "bytes1",
          "name": "fields",
          "type": "bytes1"
        },
        {
          "internalType": "string",
          "name": "name",
          "type": "string"
        },
        {
          "internalType": "string",
          "name": "version",
          "type": "string"
        },
        {
          "internalType": "uint256",
          "name": "chainId",
          "type": "uint256"
        },
        {
          "internalType": "address",
          "name": "verifyingContract",
          "type": "address"
        },
        {
          "internalType": "bytes32",
          "name": "salt",
          "type": "bytes32"
        },
        {
          "internalType": "uint256[]",
          "name": "extensions",
          "type": "uint256[]"
        }
      ],
      "stateMutability": "view",
      "type": "function"
    },
    {
      "inputs": [
        {
          "internalType": "address[]",
          "name": "targets",
          "type": "address[]"
        },
        {
          "internalType": "uint256[]",
          "name": "values",
          "type": "uint256[]"
        },
        {
          "internalType": "bytes[]",
          "name": "calldatas",
          "type": "bytes[]"
        },
        {
          "internalType": "bytes32",
          "name": "descriptionHash",
          "type": "bytes32"
        }
      ],
      "name": "execute",
      "outputs": [
        {
          "internalType": "uint256",
          "name": "",
          "type": "uint256"
        }
      ],
      "stateMutability": "payable",
      "type": "function"
    },
    {
      "inputs": [
        {
          "internalType": "address",
          "name": "account",
          "type": "address"
        },
        {
          "internalType": "uint256",
          "name": "timepoint",
          "type": "uint256"
        }
      ],
      "name": "getVotes",
      "outputs": [
        {
          "internalType": "uint256",
          "name": "",
          "type": "uint256"
        }
      ],
      "stateMutability": "view",
      "type": "function"
    },
    {
      "inputs": [
        {
          "internalType": "address",
          "name": "account",
          "type": "address"
        },
        {
          "internalType": "uint256",
          "name": "timepoint",
          "type": "uint256"
        },
        {
          "internalType": "bytes",
          "name": "params",
          "type": "bytes"
        }
      ],
      "name": "getVotesWithParams",
      "outputs": [
        {
          "internalType": "uint256",
          "name": "",
          "type": "uint256"
        }
      ],
      "stateMutability": "view",
      "type": "function"
    },
    {
      "inputs": [
        {
          "internalType": "uint256",
          "name": "proposalId",
          "type": "uint256"
        },
        {
          "internalType": "address",
          "name": "account",
          "type": "address"
        }
      ],
      "name": "hasVoted",
      "outputs": [
        {
          "internalType": "bool",
          "name": "",
          "type": "bool"
        }
      ],
      "stateMutability": "view",
      "type": "function"
    },
    {
      "inputs": [
        {
          "internalType": "address[]",
          "name": "targets",
          "type": "address[]"
        },
        {
          "internalType": "uint256[]",
          "name": "values",
          "type": "uint256[]"
        },
        {
          "internalType": "bytes[]",
          "name": "calldatas",
          "type": "bytes[]"
        },
        {
          "internalType": "bytes32",
          "name": "descriptionHash",
          "type": "bytes32"
        }
      ],
      "name": "hashProposal",
      "outputs": [
        {
          "internalType": "uint256",
          "name": "",
          "type": "uint256"
        }
      ],
      "stateMutability": "pure",
      "type": "function"
    },
    {
      "inputs": [],
      "name": "name",
      "outputs": [
        {
          "internalType": "string",
          "name": "",
          "type": "string"
        }
      ],
      "stateMutability": "view",
      "type": "function"
    },
    {
      "inputs": [
        {
          "internalType": "address",
          "name": "owner",
          "type": "address"
        }
      ],
      "name": "nonces",
      "outputs": [
        {
          "internalType": "uint256",
          "name": "",
          "type": "uint256"
        }
      ],
      "stateMutability": "view",
      "type": "function"
    },
    {
      "inputs": [
        {
          "internalType": "address",
          "name": "",
          "type": "address"
        },
        {
          "internalType": "address",
          "name": "",
          "type": "address"
        },
        {
          "internalType": "uint256[]",
          "name": "",
          "type": "uint256[]"
        },
        {
          "internalType": "uint256[]",
          "name": "",
          "type": "uint256[]"
        },
        {
          "internalType": "bytes",
          "name": "",
          "type": "bytes"
        }
      ],
      "name": "onERC1155BatchReceived",
      "outputs": [
        {
          "internalType": "bytes4",
          "name": "",
          "type": "bytes4"
        }
      ],
      "stateMutability": "nonpayable",
      "type": "function"
    },
    {
      "inputs": [
        {
          "internalType": "address",
          "name": "",
          "type": "address"
        },
        {
          "internalType": "address",
          "name": "",
          "type": "address"
        },
        {
          "internalType": "uint256",
          "name": "",
          "type": "uint256"
        },
        {
          "internalType": "uint256",
          "name": "",
          "type": "uint256"
        },
        {
          "internalType": "bytes",
          "name": "",
          "type": "bytes"
        }
      ],
      "name": "onERC1155Received",
      "outputs": [
        {
          "internalType": "bytes4",
          "name": "",
          "type": "bytes4"
        }
      ],
      "stateMutability": "nonpayable",
      "type": "function"
    },
    {
      "inputs": [
        {
          "internalType": "address",
          "name": "",
          "type": "address"
        },
        {
          "internalType": "address",
          "name": "",
          "type": "address"
        },
        {
          "internalType": "uint256",
          "name": "",
          "type": "uint256"
        },
        {
          "internalType": "bytes",
          "name": "",
          "type": "bytes"
        }
      ],
      "name": "onERC721Received",
      "outputs": [
        {
          "internalType": "bytes4",
          "name": "",
          "type": "bytes4"
        }
      ],
      "stateMutability": "nonpayable",
      "type": "function"
    },
    {
      "inputs": [
        {
          "internalType": "uint256",
          "name": "proposalId",
          "type": "uint256"
        }
      ],
      "name": "proposalDeadline",
      "outputs": [
        {
          "internalType": "uint256",
          "name": "",
          "type": "uint256"
        }
      ],
      "stateMutability": "view",
      "type": "function"
    },
    {
      "inputs": [
        {
          "internalType": "uint256",
          "name": "proposalId",
          "type": "uint256"
        }
      ],
      "name": "proposalEta",
      "outputs": [
        {
          "internalType": "uint256",
          "name": "",
          "type": "uint256"
        }
      ],
      "stateMutability": "view",
      "type": "function"
    },
    {
      "inputs": [
        {
          "internalType": "uint256",
          "name": "proposalId",
          "type": "uint256"
        }
      ],
      "name": "proposalNeedsQueuing",
      "outputs": [
        {
          "internalType": "bool",
          "name": "",
          "type": "bool"
        }
      ],
      "stateMutability": "view",
      "type": "function"
    },
    {
      "inputs": [
        {
          "internalType": "uint256",
          "name": "proposalId",
          "type": "uint256"
        }
      ],
      "name": "proposalProposer",
      "outputs": [
        {
          "internalType": "address",
          "name": "",
          "type": "address"
        }
      ],
      "stateMutability": "view",
      "type": "function"
    },
    {
      "inputs": [
        {
          "internalType": "uint256",
          "name": "proposalId",
          "type": "uint256"
        }
      ],
      "name": "proposalSnapshot",
      "outputs": [
        {
          "internalType": "uint256",
          "name": "",
          "type": "uint256"
        }
      ],
      "stateMutability": "view",
      "type": "function"
    },
    {
      "inputs": [],
      "name": "proposalThreshold",
      "outputs": [
        {
          "internalType": "uint256",
          "name": "",
          "type": "uint256"
        }
      ],
      "stateMutability": "view",
      "type": "function"
    },
    {
      "inputs": [
        {
          "internalType": "uint256",
          "name": "proposalId",
          "type": "uint256"
        }
      ],
      "name": "proposalVotes",
      "outputs": [
        {
          "internalType": "uint256",
          "name": "againstVotes",
          "type": "uint256"
        },
        {
          "internalType": "uint256",
          "name": "forVotes",
          "type": "uint256"
        },
        {
          "internalType": "uint256",
          "name": "abstainVotes",
          "type": "uint256"
        }
      ],
      "stateMutability": "view",
      "type": "function"
    },
    {
      "inputs": [
        {
          "internalType": "address[]",
          "name": "targets",
          "type": "address[]"
        },
        {
          "internalType": "uint256[]",
          "name": "values",
          "type": "uint256[]"
        },
        {
          "internalType": "bytes[]",
          "name": "calldatas",
          "type": "bytes[]"
        },
        {
          "internalType": "string",
          "name": "description",
          "type": "string"
        }
      ],
      "name": "propose",
      "outputs": [
        {
          "internalType": "uint256",
          "name": "",
          "type": "uint256"
        }
      ],
      "stateMutability": "nonpayable",
      "type": "function"
    },
    {
      "inputs": [
        {
          "internalType": "address[]",
          "name": "targets",
          "type": "address[]"
        },
        {
          "internalType": "uint256[]",
          "name": "values",
          "type": "uint256[]"
        },
        {
          "internalType": "bytes[]",
          "name": "calldatas",
          "type": "bytes[]"
        },
        {
          "internalType": "bytes32",
          "name": "descriptionHash",
          "type": "bytes32"
        }
      ],
      "name": "queue",
      "outputs": [
        {
          "internalType": "uint256",
          "name": "",
          "type": "uint256"
        }
      ],
      "stateMutability": "nonpayable",
      "type": "function"
    },
    {
      "inputs": [
        {
          "internalType": "uint256",
          "name": "blockNumber",
          "type": "uint256"
        }
      ],
      "name": "quorum",
      "outputs": [
        {
          "internalType": "uint256",
          "name": "",
          "type": "uint256"
        }
      ],
      "stateMutability": "view",
      "type": "function"
    },
    {
      "inputs": [],
      "name": "quorumDenominator",
      "outputs": [
        {
          "internalType": "uint256",
          "name": "",
          "type": "uint256"
        }
      ],
      "stateMutability": "view",
      "type": "function"
    },
    {
      "inputs": [
        {
          "internalType": "uint256",
          "name": "timepoint",
          "type": "uint256"
        }
      ],
      "name": "quorumNumerator",
      "outputs": [
        {
          "internalType": "uint256",
          "name": "",
          "type": "uint256"
        }
      ],
      "stateMutability": "view",
      "type": "function"
    },
    {
      "inputs": [],
      "name": "quorumNumerator",
      "outputs": [
        {
          "internalType": "uint256",
          "name": "",
          "type": "uint256"
        }
      ],
      "stateMutability": "view",
      "type": "function"
    },
    {
      "inputs": [
        {
          "internalType": "address",
          "name": "target",
          "type": "address"
        },
        {
          "internalType": "uint256",
          "name": "value",
          "type": "uint256"
        },
        {
          "internalType": "bytes",
          "name": "data",
          "type": "bytes"
        }
      ],
      "name": "relay",
      "outputs": [],
      "stateMutability": "payable",
      "type": "function"
    },
    {
      "inputs": [
        {
          "internalType": "uint256",
          "name": "newProposalThreshold",
          "type": "uint256"
        }
      ],
      "name": "setProposalThreshold",
      "outputs": [],
      "stateMutability": "nonpayable",
      "type": "function"
    },
    {
      "inputs": [
        {
          "internalType": "uint48",
          "name": "newVotingDelay",
          "type": "uint48"
        }
      ],
      "name": "setVotingDelay",
      "outputs": [],
      "stateMutability": "nonpayable",
      "type": "function"
    },
    {
      "inputs": [
        {
          "internalType": "uint32",
          "name": "newVotingPeriod",
          "type": "uint32"
        }
      ],
      "name": "setVotingPeriod",
      "outputs": [],
      "stateMutability": "nonpayable",
      "type": "function"
    },
    {
      "inputs": [
        {
          "internalType": "uint256",
          "name": "proposalId",
          "type": "uint256"
        }
      ],
      "name": "state",
      "outputs": [
        {
          "internalType": "enum IGovernor.ProposalState",
          "name": "",
          "type": "uint8"
        }
      ],
      "stateMutability": "view",
      "type": "function"
    },
    {
      "inputs": [
        {
          "internalType": "bytes4",
          "name": "interfaceId",
          "type": "bytes4"
        }
      ],
      "name": "supportsInterface",
      "outputs": [
        {
          "internalType": "bool",
          "name": "",
          "type": "bool"
        }
      ],
      "stateMutability": "view",
      "type": "function"
    },
    {
      "inputs": [],
      "name": "timelock",
      "outputs": [
        {
          "internalType": "address",
          "name": "",
          "type": "address"
        }
      ],
      "stateMutability": "view",
      "type": "function"
    },
    {
      "inputs": [],
      "name": "token",
      "outputs": [
        {
          "internalType": "contract IERC5805",
          "name": "",
          "type": "address"
        }
      ],
      "stateMutability": "view",
      "type": "function"
    },
    {
      "inputs": [
        {
          "internalType": "uint256",
          "name": "newQuorumNumerator",
          "type": "uint256"
        }
      ],
      "name": "updateQuorumNumerator",
      "outputs": [],
      "stateMutability": "nonpayable",
      "type": "function"
    },
    {
      "inputs": [
        {
          "internalType": "contract TimelockController",
          "name": "newTimelock",
          "type": "address"
        }
      ],
      "name": "updateTimelock",
      "outputs": [],
      "stateMutability": "nonpayable",
      "type": "function"
    },
    {
      "inputs": [],
      "name": "version",
      "outputs": [
        {
          "internalType": "string",
          "name": "",
          "type": "string"
        }
      ],
      "stateMutability": "view",
      "type": "function"
    },
    {
      "inputs": [],
      "name": "votingDelay",
      "outputs": [
        {
          "internalType": "uint256",
          "name": "",
          "type": "uint256"
        }
      ],
      "stateMutability": "view",
      "type": "function"
    },
    {
      "inputs": [],
      "name": "votingPeriod",
      "outputs": [
        {
          "internalType": "uint256",
          "name": "",
          "type": "uint256"
        }
      ],
      "stateMutability": "view",
      "type": "function"
    },
    {
      "stateMutability": "payable",
      "type": "receive"
    }
  ],
  "bytecode": "0x6101806040523480156200001257600080fd5b50604051620052b2380380620052b28339810160408190526200003591620007b5565b8060048361012c610258674563918244f400006040518060400160405280600c81526020016b135e51dbdd995c9b9bdc951360a21b815250806200007e6200019560201b60201c565b6200008b826000620001b0565b610120526200009c816001620001b0565b61014052815160208084019190912060e052815190820120610100524660a0526200012a60e05161010051604080517f8b73c3c69bb8fe3d512ecc4cf759cc79239f7b179b0ffacaa9a75d522b39400f60208201529081019290925260608201524660808201523060a082015260009060c00160405160208183030381529060405280519060200120905090565b60805250503060c05260036200014182826200089b565b506200014f905083620001e9565b6200015a826200024f565b6200016581620002f6565b5050506001600160a01b031661016052620001808162000337565b506200018c81620003d7565b50505062000a29565b6040805180820190915260018152603160f81b602082015290565b6000602083511015620001d057620001c88362000440565b9050620001e3565b81620001dd84826200089b565b5060ff90505b92915050565b6008546040805165ffffffffffff928316815291831660208301527fc565b045403dc03c2eea82b81a0465edad9e2e7fc4d97e11421c209da93d7a93910160405180910390a16008805465ffffffffffff191665ffffffffffff92909216919091179055565b8063ffffffff166000036200027f5760405163f1cfbf0560e01b8152600060048201526024015b60405180910390fd5b6008546040805163ffffffff66010000000000009093048316815291831660208301527f7e3f7f0708a84de9203036abaa450dccc85ad5ff52f78c170f3edb55cf5e8828910160405180910390a16008805463ffffffff90921666010000000000000263ffffffff60301b19909216919091179055565b60075460408051918252602082018390527fccb45da8d5717e6c4544694297c4ba5cf151d455c9bb0ed4fc7a38411bc05461910160405180910390a1600755565b606480821115620003665760405163243e544560e01b8152600481018390526024810182905260440162000276565b60006200037262000483565b905062000397620003826200049f565b6200038d8562000521565b600a91906200055b565b505060408051828152602081018590527f0553476bf02ef2726e8ce5ced78d63e26e602e4a2257b1f559418e24b4633997910160405180910390a1505050565b600b54604080516001600160a01b03928316815291831660208301527f08f74ea46ef7894f65eabfb5e6e695de773a000b47c529ab559178069b226401910160405180910390a1600b80546001600160a01b0319166001600160a01b0392909216919091179055565b600080829050601f815111156200046e578260405163305a27a960e01b815260040162000276919062000967565b80516200047b82620009b8565b179392505050565b600062000491600a62000578565b6001600160d01b0316905090565b6000620004ac6101605190565b6001600160a01b03166391ddadf46040518163ffffffff1660e01b8152600401602060405180830381865afa92505050801562000508575060408051601f3d908101601f191682019092526200050591810190620009dd565b60015b6200051c5762000517620005c8565b905090565b919050565b60006001600160d01b0382111562000557576040516306dfcc6560e41b815260d060048201526024810183905260440162000276565b5090565b6000806200056b858585620005d5565b915091505b935093915050565b80546000908015620005be57620005a4836200059660018462000a07565b600091825260209091200190565b54660100000000000090046001600160d01b0316620005c1565b60005b9392505050565b6000620005174362000767565b82546000908190801562000708576000620005f7876200059660018562000a07565b60408051808201909152905465ffffffffffff80821680845266010000000000009092046001600160d01b0316602084015291925090871610156200064f57604051632520601d60e01b815260040160405180910390fd5b805165ffffffffffff808816911603620006a3578462000676886200059660018662000a07565b80546001600160d01b039290921666010000000000000265ffffffffffff909216919091179055620006f7565b6040805180820190915265ffffffffffff80881682526001600160d01b0380881660208085019182528b54600181018d5560008d815291909120945191519092166601000000000000029216919091179101555b602001519250839150620005709050565b50506040805180820190915265ffffffffffff80851682526001600160d01b0380851660208085019182528854600181018a5560008a815291822095519251909316660100000000000002919093161792019190915590508162000570565b600065ffffffffffff82111562000557576040516306dfcc6560e41b8152603060048201526024810183905260440162000276565b6001600160a01b0381168114620007b257600080fd5b50565b60008060408385031215620007c957600080fd5b8251620007d6816200079c565b6020840151909250620007e9816200079c565b809150509250929050565b634e487b7160e01b600052604160045260246000fd5b600181811c908216806200081f57607f821691505b6020821081036200084057634e487b7160e01b600052602260045260246000fd5b50919050565b601f82111562000896576000816000526020600020601f850160051c81016020861015620008715750805b601f850160051c820191505b8181101562000892578281556001016200087d565b5050505b505050565b81516001600160401b03811115620008b757620008b7620007f4565b620008cf81620008c884546200080a565b8462000846565b602080601f831160018114620009075760008415620008ee5750858301515b600019600386901b1c1916600185901b17855562000892565b600085815260208120601f198616915b82811015620009385788860151825594840194600190910190840162000917565b5085821015620009575787850151600019600388901b60f8161c191681555b5050505050600190811b01905550565b60006020808352835180602085015260005b81811015620009975785810183015185820160400152820162000979565b506000604082860101526040601f19601f8301168501019250505092915050565b80516020808301519190811015620008405760001960209190910360031b1b16919050565b600060208284031215620009f057600080fd5b815165ffffffffffff81168114620005c157600080fd5b81810381811115620001e357634e487b7160e01b600052601160045260246000fd5b60805160a05160c05160e0516101005161012051610140516101605161480762000aab60003960008181610a9601528181610f99015281816115420152818161230f01526125c1015260006122da015260006122ad01526000612ca601526000612c7e01526000612bd901526000612c0301526000612c2d01526148076000f3fe6080604052600436106103175760003560e01c80637ecebe001161019a578063c01f9e37116100e1578063e540d01d1161008a578063f23a6e6111610064578063f23a6e6114610a47578063f8ce560a14610a67578063fc0c546a14610a8757600080fd5b8063e540d01d146109e7578063eb9019d414610a07578063ece40cc114610a2757600080fd5b8063d33219b4116100bb578063d33219b41461094f578063dd4e2ba51461096d578063deaaa7cc146109b357600080fd5b8063c01f9e37146108fc578063c28bc2fa1461091c578063c59057e41461092f57600080fd5b8063a7713a7011610143578063ab58fb8e1161011d578063ab58fb8e1461088f578063b58131b0146108c7578063bc197c81146108dc57600080fd5b8063a7713a701461083a578063a890c9101461084f578063a9a952941461086f57600080fd5b806391ddadf41161017457806391ddadf4146107da57806397c3d334146108065780639a802a6d1461081a57600080fd5b80637ecebe001461075c57806384b0196e146107925780638ff262e3146107ba57600080fd5b8063438596321161025e5780635b8d0e0d1161020757806379051887116101e157806379051887146106fc5780637b3c71d31461071c5780637d5e81e21461073c57600080fd5b80635b8d0e0d1461069c5780635f398a14146106bc57806360c4247f146106dc57600080fd5b8063544ffc9c11610238578063544ffc9c146105e157806354fd4d5014610636578063567813881461067c57600080fd5b80634385963214610562578063452115d6146105ac5780634bf5d7e9146105cc57600080fd5b8063160cbed7116102c05780632fe3e2611161029a5780632fe3e261146104ec5780633932abb1146105205780633e4f49e61461053557600080fd5b8063160cbed71461047d5780632656227d1461049d5780632d63f693146104b057600080fd5b806306fdde03116102f157806306fdde03146103d4578063143489d0146103f6578063150b7a021461044457600080fd5b806301ffc9a71461035357806302a251a31461038857806306f3f9e6146103b457600080fd5b3661034e5730610325610aba565b6001600160a01b03161461034c57604051637485328f60e11b815260040160405180910390fd5b005b600080fd5b34801561035f57600080fd5b5061037361036e366004613723565b610ad3565b60405190151581526020015b60405180910390f35b34801561039457600080fd5b50600854600160301b900463ffffffff165b60405190815260200161037f565b3480156103c057600080fd5b5061034c6103cf36600461374d565b610b70565b3480156103e057600080fd5b506103e9610b84565b60405161037f91906137b6565b34801561040257600080fd5b5061042c61041136600461374d565b6000908152600460205260409020546001600160a01b031690565b6040516001600160a01b03909116815260200161037f565b34801561045057600080fd5b5061046461045f3660046138ab565b610c16565b6040516001600160e01b0319909116815260200161037f565b34801561048957600080fd5b506103a6610498366004613a8d565b610c72565b6103a66104ab366004613a8d565b610d5a565b3480156104bc57600080fd5b506103a66104cb36600461374d565b600090815260046020526040902054600160a01b900465ffffffffffff1690565b3480156104f857600080fd5b506103a67f3e83946653575f9a39005e1545185629e92736b7528ab20ca3816f315424a81181565b34801561052c57600080fd5b506103a6610eea565b34801561054157600080fd5b5061055561055036600461374d565b610efd565b60405161037f9190613b55565b34801561056e57600080fd5b5061037361057d366004613b63565b60008281526009602090815260408083206001600160a01b038516845260030190915290205460ff1692915050565b3480156105b857600080fd5b506103a66105c7366004613a8d565b610f08565b3480156105d857600080fd5b506103e9610f95565b3480156105ed57600080fd5b5061061b6105fc36600461374d565b6000908152600960205260409020805460018201546002909201549092565b6040805193845260208401929092529082015260600161037f565b34801561064257600080fd5b5060408051808201909152600181527f310000000000000000000000000000000000000000000000000000000000000060208201526103e9565b34801561068857600080fd5b506103a6610697366004613ba4565b611057565b3480156106a857600080fd5b506103a66106b7366004613c19565b611080565b3480156106c857600080fd5b506103a66106d7366004613cd4565b6111df565b3480156106e857600080fd5b506103a66106f736600461374d565b611234565b34801561070857600080fd5b5061034c610717366004613d6c565b6112c2565b34801561072857600080fd5b506103a6610737366004613d89565b6112d3565b34801561074857600080fd5b506103a6610757366004613de3565b61131b565b34801561076857600080fd5b506103a6610777366004613e98565b6001600160a01b031660009081526002602052604090205490565b34801561079e57600080fd5b506107a761140a565b60405161037f9796959493929190613ef1565b3480156107c657600080fd5b506103a66107d5366004613f7b565b61146c565b3480156107e657600080fd5b506107ef61153e565b60405165ffffffffffff909116815260200161037f565b34801561081257600080fd5b5060646103a6565b34801561082657600080fd5b506103a6610835366004613fcd565b6115c6565b34801561084657600080fd5b506103a66115d3565b34801561085b57600080fd5b5061034c61086a366004613e98565b6115ed565b34801561087b57600080fd5b5061037361088a36600461374d565b6115fe565b34801561089b57600080fd5b506103a66108aa36600461374d565b60009081526004602052604090206001015465ffffffffffff1690565b3480156108d357600080fd5b506103a6611607565b3480156108e857600080fd5b506104646108f7366004614026565b611612565b34801561090857600080fd5b506103a661091736600461374d565b61166f565b61034c61092a3660046140ba565b6116b2565b34801561093b57600080fd5b506103a661094a366004613a8d565b611732565b34801561095b57600080fd5b50600b546001600160a01b031661042c565b34801561097957600080fd5b506040805180820190915260208082527f737570706f72743d627261766f2671756f72756d3d666f722c6162737461696e908201526103e9565b3480156109bf57600080fd5b506103a67ff2aad550cf55f045cb27e9c559f9889fdfb6e6cdaa032301d6ea397784ae51d781565b3480156109f357600080fd5b5061034c610a023660046140fe565b61176c565b348015610a1357600080fd5b506103a6610a22366004614124565b61177d565b348015610a3357600080fd5b5061034c610a4236600461374d565b6117a5565b348015610a5357600080fd5b50610464610a62366004614150565b6117b6565b348015610a7357600080fd5b506103a6610a8236600461374d565b611813565b348015610a9357600080fd5b507f000000000000000000000000000000000000000000000000000000000000000061042c565b6000610ace600b546001600160a01b031690565b905090565b60006001600160e01b031982167f65455a86000000000000000000000000000000000000000000000000000000001480610b3657506001600160e01b031982167f4e2312e000000000000000000000000000000000000000000000000000000000145b80610b6a57507f01ffc9a7000000000000000000000000000000000000000000000000000000006001600160e01b03198316145b92915050565b610b7861181e565b610b81816118b1565b50565b606060038054610b93906141b9565b80601f0160208091040260200160405190810160405280929190818152602001828054610bbf906141b9565b8015610c0c5780601f10610be157610100808354040283529160200191610c0c565b820191906000526020600020905b815481529060010190602001808311610bef57829003601f168201915b5050505050905090565b600030610c21610aba565b6001600160a01b031614610c4857604051637485328f60e11b815260040160405180910390fd5b507f150b7a0200000000000000000000000000000000000000000000000000000000949350505050565b600080610c8186868686611732565b9050610c9681610c916004611960565b611983565b506000610ca682888888886119c2565b905065ffffffffffff811615610d1e57600082815260046020908152604091829020600101805465ffffffffffff191665ffffffffffff85169081179091558251858152918201527f9a2e42fd6722813d69113e7d0079d3d940171428df7373df9c7f7617cfda2892910160405180910390a1610d50565b6040517f90884a4600000000000000000000000000000000000000000000000000000000815260040160405180910390fd5b5095945050505050565b600080610d6986868686611732565b9050610d8981610d796005611960565b610d836004611960565b17611983565b50600081815260046020526040902080547fff00ffffffffffffffffffffffffffffffffffffffffffffffffffffffffffff16600160f01b17905530610dcd610aba565b6001600160a01b031614610e575760005b8651811015610e5557306001600160a01b0316878281518110610e0357610e036141f3565b60200260200101516001600160a01b031603610e4d57610e4d858281518110610e2e57610e2e6141f3565b60200260200101518051906020012060056119d190919063ffffffff16565b600101610dde565b505b610e648187878787611a6d565b30610e6d610aba565b6001600160a01b031614158015610ea257506005546fffffffffffffffffffffffffffffffff808216600160801b9092041614155b15610ead5760006005555b6040518181527f712ae1383f79ac853f8d882153778e0260ef8f03b504e2866e0593e04d2b291f906020015b60405180910390a195945050505050565b6000610ace60085465ffffffffffff1690565b6000610b6a82611a81565b600080610f1786868686611732565b9050610f2781610c916000611960565b506000818152600460205260409020546001600160a01b03163314610f7f576040517f233d98e30000000000000000000000000000000000000000000000000000000081523360048201526024015b60405180910390fd5b610f8b86868686611bf2565b9695505050505050565b60607f00000000000000000000000000000000000000000000000000000000000000006001600160a01b0316634bf5d7e96040518163ffffffff1660e01b8152600401600060405180830381865afa92505050801561101657506040513d6000823e601f3d908101601f191682016040526110139190810190614209565b60015b611052575060408051808201909152601d81527f6d6f64653d626c6f636b6e756d6265722666726f6d3d64656661756c74000000602082015290565b919050565b60008033905061107884828560405180602001604052806000815250611c09565b949350505050565b6000806111638761115d7f3e83946653575f9a39005e1545185629e92736b7528ab20ca3816f315424a8118c8c8c6110d58e6001600160a01b0316600090815260026020526040902080546001810190915590565b8d8d6040516110e5929190614277565b60405180910390208c805190602001206040516020016111429796959493929190968752602087019590955260ff9390931660408601526001600160a01b03919091166060850152608084015260a083015260c082015260e00190565b60405160208183030381529060405280519060200120611c2c565b85611c74565b90508061118e576040516394ab6c0760e01b81526001600160a01b0388166004820152602401610f76565b6111d289888a89898080601f0160208091040260200160405190810160405280939291908181526020018383808284376000920191909152508b9250611ccc915050565b9998505050505050505050565b60008033905061122987828888888080601f0160208091040260200160405190810160405280939291908181526020018383808284376000920191909152508a9250611ccc915050565b979650505050505050565b600a8054600091829061124860018461429d565b81548110611258576112586141f3565b6000918252602090912001805490915065ffffffffffff811690600160301b90046001600160d01b031685821161129b576001600160d01b031695945050505050565b6112af6112a787611dbe565b600a90611df5565b6001600160d01b03169695505050505050565b6112ca61181e565b610b8181611eaa565b600080339050610f8b86828787878080601f016020809104026020016040519081016040528093929190818152602001838380828437600092019190915250611c0992505050565b6000336113288184611f10565b611369576040517fd9b395570000000000000000000000000000000000000000000000000000000081526001600160a01b0382166004820152602401610f76565b600061139082600161137961153e565b61138391906142b0565b65ffffffffffff1661177d565b9050600061139c611607565b9050808210156113f1576040517fc242ee160000000000000000000000000000000000000000000000000000000081526001600160a01b03841660048201526024810183905260448101829052606401610f76565b6113fe8888888887612031565b98975050505050505050565b60006060806000806000606061141e6122a6565b6114266122d3565b604080516000808252602082019092527f0f000000000000000000000000000000000000000000000000000000000000009b939a50919850469750309650945092509050565b6000806114f88461115d7ff2aad550cf55f045cb27e9c559f9889fdfb6e6cdaa032301d6ea397784ae51d78989896114c18b6001600160a01b0316600090815260026020526040902080546001810190915590565b60408051602081019690965285019390935260ff90911660608401526001600160a01b0316608083015260a082015260c001611142565b905080611523576040516394ab6c0760e01b81526001600160a01b0385166004820152602401610f76565b610f8b86858760405180602001604052806000815250611c09565b60007f00000000000000000000000000000000000000000000000000000000000000006001600160a01b03166391ddadf46040518163ffffffff1660e01b8152600401602060405180830381865afa9250505080156115ba575060408051601f3d908101601f191682019092526115b7918101906142d6565b60015b61105257610ace612300565b600061107884848461230b565b60006115df600a6123ba565b6001600160d01b0316905090565b6115f561181e565b610b81816123f3565b60006001610b6a565b6000610ace60075490565b60003061161d610aba565b6001600160a01b03161461164457604051637485328f60e11b815260040160405180910390fd5b507fbc197c810000000000000000000000000000000000000000000000000000000095945050505050565b6000818152600460205260408120546116a490600160d01b810463ffffffff1690600160a01b900465ffffffffffff166142f3565b65ffffffffffff1692915050565b6116ba61181e565b600080856001600160a01b03168585856040516116d8929190614277565b60006040518083038185875af1925050503d8060008114611715576040519150601f19603f3d011682016040523d82523d6000602084013e61171a565b606091505b50915091506117298282612469565b50505050505050565b60008484848460405160200161174b94939291906143a6565b60408051601f19818403018152919052805160209091012095945050505050565b61177461181e565b610b8181612485565b600061179e838361179960408051602081019091526000815290565b61230b565b9392505050565b6117ad61181e565b610b818161253c565b6000306117c1610aba565b6001600160a01b0316146117e857604051637485328f60e11b815260040160405180910390fd5b507ff23a6e610000000000000000000000000000000000000000000000000000000095945050505050565b6000610b6a8261257d565b33611827610aba565b6001600160a01b031614611869576040517f47096e47000000000000000000000000000000000000000000000000000000008152336004820152602401610f76565b30611872610aba565b6001600160a01b0316146118af5760008036604051611892929190614277565b604051809103902090505b806118a86005612640565b0361189d57505b565b6064808211156118f7576040517f243e54450000000000000000000000000000000000000000000000000000000081526004810183905260248101829052604401610f76565b60006119016115d3565b905061192061190e61153e565b611917856126f8565b600a919061272c565b505060408051828152602081018590527f0553476bf02ef2726e8ce5ced78d63e26e602e4a2257b1f559418e24b4633997910160405180910390a1505050565b600081600781111561197457611974613b1d565b600160ff919091161b92915050565b60008061198f84610efd565b905060008361199d83611960565b160361179e578381846040516331b75e4d60e01b8152600401610f76939291906143f1565b6000610f8b8686868686612747565b81546fffffffffffffffffffffffffffffffff600160801b820481169181166001830190911603611a2e576040517f8acb5f2700000000000000000000000000000000000000000000000000000000815260040160405180910390fd5b6fffffffffffffffffffffffffffffffff808216600090815260018086016020526040909120939093558354919092018216600160801b029116179055565b611a7a8585858585612918565b5050505050565b600080611a8d836129ae565b90506005816007811115611aa357611aa3613b1d565b14611aae5792915050565b6000838152600c60205260409081902054600b5491517f584b153e0000000000000000000000000000000000000000000000000000000081526004810182905290916001600160a01b03169063584b153e90602401602060405180830381865afa158015611b20573d6000803e3d6000fd5b505050506040513d601f19601f82011682018060405250810190611b449190614413565b15611b53575060059392505050565b600b546040517f2ab0f529000000000000000000000000000000000000000000000000000000008152600481018390526001600160a01b0390911690632ab0f52990602401602060405180830381865afa158015611bb5573d6000803e3d6000fd5b505050506040513d601f19601f82011682018060405250810190611bd99190614413565b15611be8575060079392505050565b5060029392505050565b6000611c0085858585612b14565b95945050505050565b6000611c0085858585611c2760408051602081019091526000815290565b611ccc565b6000610b6a611c39612bcc565b836040517f19010000000000000000000000000000000000000000000000000000000000008152600281019290925260228201526042902090565b6000806000611c838585612cf7565b5090925090506000816003811115611c9d57611c9d613b1d565b148015611cbb5750856001600160a01b0316826001600160a01b0316145b80610f8b5750610f8b868686612d44565b6000611cdc86610c916001611960565b50600086815260046020526040812054611d07908790600160a01b900465ffffffffffff168561230b565b9050611d168787878487612e34565b8251600003611d6b57856001600160a01b03167fb8e138887d0aa13bab447e82de9d5c1777041ecd21ca36ba824ff1e6c07ddda488878488604051611d5e9493929190614435565b60405180910390a2610f8b565b856001600160a01b03167fe2babfbac5889a709b63bb7f598b324e08bc5a4fb9ec647fb3cbc9ec07eb87128887848888604051611dac95949392919061445d565b60405180910390a29695505050505050565b600065ffffffffffff821115611df1576040516306dfcc6560e41b81526030600482015260248101839052604401610f76565b5090565b815460009081816005811115611e54576000611e1084612f67565b611e1a908561429d565b60008881526020902090915081015465ffffffffffff9081169087161015611e4457809150611e52565b611e4f816001614497565b92505b505b6000611e628787858561304f565b90508015611e9d57611e8787611e7960018461429d565b600091825260209091200190565b54600160301b90046001600160d01b0316611229565b6000979650505050505050565b6008546040805165ffffffffffff928316815291831660208301527fc565b045403dc03c2eea82b81a0465edad9e2e7fc4d97e11421c209da93d7a93910160405180910390a16008805465ffffffffffff191665ffffffffffff92909216919091179055565b80516000906034811015611f28576001915050610b6a565b828101601319015173ffffffffffffffffffffffffffffffffffffffff1981167f2370726f706f7365723d3078000000000000000000000000000000000000000014611f7957600192505050610b6a565b600080611f8760288561429d565b90505b8381101561201057600080611fd6888481518110611faa57611faa6141f3565b01602001517fff00000000000000000000000000000000000000000000000000000000000000166130b1565b9150915081611fee5760019650505050505050610b6a565b8060ff166004856001600160a01b0316901b1793505050806001019050611f8a565b50856001600160a01b0316816001600160a01b031614935050505092915050565b60006120468686868680519060200120611732565b90508451865114158061205b57508351865114155b8061206557508551155b156120b3578551845186516040517f447b05d0000000000000000000000000000000000000000000000000000000008152600481019390935260248301919091526044820152606401610f76565b600081815260046020526040902054600160a01b900465ffffffffffff16156120fe57806120e082610efd565b6040516331b75e4d60e01b8152610f769291906000906004016143f1565b6000612108610eea565b61211061153e565b65ffffffffffff166121229190614497565b9050600061213d60085463ffffffff600160301b9091041690565b6000848152600460205260409020805473ffffffffffffffffffffffffffffffffffffffff19166001600160a01b03871617815590915061217d83611dbe565b815465ffffffffffff91909116600160a01b027fffffffffffff000000000000ffffffffffffffffffffffffffffffffffffffff9091161781556121c082613143565b815463ffffffff91909116600160d01b027fffff00000000ffffffffffffffffffffffffffffffffffffffffffffffffffff90911617815588517f7d84a6263ae0d98d3329bd7b46bb4e8d6f98cd35a7adb45c274c8b7fd5ebd5e090859087908c908c9067ffffffffffffffff81111561223c5761223c6137de565b60405190808252806020026020018201604052801561226f57816020015b606081526020019060019003908161225a5790505b508c8961227c8a82614497565b8e604051612292999897969594939291906144aa565b60405180910390a150505095945050505050565b6060610ace7f00000000000000000000000000000000000000000000000000000000000000006000613174565b6060610ace7f00000000000000000000000000000000000000000000000000000000000000006001613174565b6000610ace43611dbe565b60007f00000000000000000000000000000000000000000000000000000000000000006040517f3a46b1a80000000000000000000000000000000000000000000000000000000081526001600160a01b038681166004830152602482018690529190911690633a46b1a890604401602060405180830381865afa158015612396573d6000803e3d6000fd5b505050506040513d601f19601f820116820180604052508101906110789190614582565b805460009080156123ea576123d483611e7960018461429d565b54600160301b90046001600160d01b031661179e565b60009392505050565b600b54604080516001600160a01b03928316815291831660208301527f08f74ea46ef7894f65eabfb5e6e695de773a000b47c529ab559178069b226401910160405180910390a1600b805473ffffffffffffffffffffffffffffffffffffffff19166001600160a01b0392909216919091179055565b60608261247e576124798261321f565b610b6a565b5080610b6a565b8063ffffffff166000036124c8576040517ff1cfbf0500000000000000000000000000000000000000000000000000000000815260006004820152602401610f76565b6008546040805163ffffffff600160301b9093048316815291831660208301527f7e3f7f0708a84de9203036abaa450dccc85ad5ff52f78c170f3edb55cf5e8828910160405180910390a16008805463ffffffff909216600160301b0269ffffffff00000000000019909216919091179055565b60075460408051918252602082018390527fccb45da8d5717e6c4544694297c4ba5cf151d455c9bb0ed4fc7a38411bc05461910160405180910390a1600755565b6000606461258a83611234565b6040517f8e539e8c000000000000000000000000000000000000000000000000000000008152600481018590526001600160a01b037f00000000000000000000000000000000000000000000000000000000000000001690638e539e8c90602401602060405180830381865afa158015612608573d6000803e3d6000fd5b505050506040513d601f19601f8201168201806040525081019061262c9190614582565b612636919061459b565b610b6a91906145c8565b80546000906fffffffffffffffffffffffffffffffff80821691600160801b900416810361269a576040517f75e52f4f00000000000000000000000000000000000000000000000000000000815260040160405180910390fd5b6fffffffffffffffffffffffffffffffff8181166000908152600185810160205260408220805492905585547fffffffffffffffffffffffffffffffff00000000000000000000000000000000169301909116919091179092555090565b60006001600160d01b03821115611df1576040516306dfcc6560e41b815260d0600482015260248101839052604401610f76565b60008061273a858585613261565b915091505b935093915050565b600080600b60009054906101000a90046001600160a01b03166001600160a01b031663f27a0c926040518163ffffffff1660e01b8152600401602060405180830381865afa15801561279d573d6000803e3d6000fd5b505050506040513d601f19601f820116820180604052508101906127c19190614582565b905060003060601b6bffffffffffffffffffffffff19168418600b546040517fb1c5f4270000000000000000000000000000000000000000000000000000000081529192506001600160a01b03169063b1c5f4279061282d908a908a908a9060009088906004016145ea565b602060405180830381865afa15801561284a573d6000803e3d6000fd5b505050506040513d601f19601f8201168201806040525081019061286e9190614582565b6000898152600c602052604080822092909255600b5491517f8f2a0bb00000000000000000000000000000000000000000000000000000000081526001600160a01b0390921691638f2a0bb0916128d2918b918b918b919088908a90600401614638565b600060405180830381600087803b1580156128ec57600080fd5b505af1158015612900573d6000803e3d6000fd5b505050506113fe82426129139190614497565b611dbe565b600b546001600160a01b031663e38335e53486868660003060601b6bffffffffffffffffffffffff191688186040518763ffffffff1660e01b81526004016129649594939291906145ea565b6000604051808303818588803b15801561297d57600080fd5b505af1158015612991573d6000803e3d6000fd5b50505060009687525050600c602052505060408320929092555050565b6000818152600460205260408120805460ff600160f01b8204811691600160f81b90041681156129e357506007949350505050565b80156129f457506002949350505050565b600085815260046020526040812054600160a01b900465ffffffffffff16905080600003612a51576040517f6ad0607500000000000000000000000000000000000000000000000000000000815260048101879052602401610f76565b6000612a5b61153e565b65ffffffffffff169050808210612a79575060009695505050505050565b6000612a848861166f565b9050818110612a9b57506001979650505050505050565b612aa4886133f4565b1580612ac457506000888152600960205260409020805460019091015411155b15612ad757506003979650505050505050565b60008881526004602052604090206001015465ffffffffffff16600003612b0657506004979650505050505050565b506005979650505050505050565b600080612b2386868686613446565b6000818152600c60205260409020549091508015610d5057600b546040517fc4d252f5000000000000000000000000000000000000000000000000000000008152600481018390526001600160a01b039091169063c4d252f590602401600060405180830381600087803b158015612b9a57600080fd5b505af1158015612bae573d6000803e3d6000fd5b5050506000838152600c602052604081205550509050949350505050565b6000306001600160a01b037f000000000000000000000000000000000000000000000000000000000000000016148015612c2557507f000000000000000000000000000000000000000000000000000000000000000046145b15612c4f57507f000000000000000000000000000000000000000000000000000000000000000090565b610ace604080517f8b73c3c69bb8fe3d512ecc4cf759cc79239f7b179b0ffacaa9a75d522b39400f60208201527f0000000000000000000000000000000000000000000000000000000000000000918101919091527f000000000000000000000000000000000000000000000000000000000000000060608201524660808201523060a082015260009060c00160405160208183030381529060405280519060200120905090565b60008060008351604103612d315760208401516040850151606086015160001a612d238882858561350f565b955095509550505050612d3d565b50508151600091506002905b9250925092565b6000806000856001600160a01b03168585604051602401612d66929190614690565b60408051601f198184030181529181526020820180517bffffffffffffffffffffffffffffffffffffffffffffffffffffffff16630b135d3f60e11b17905251612db091906146a9565b600060405180830381855afa9150503d8060008114612deb576040519150601f19603f3d011682016040523d82523d6000602084013e612df0565b606091505b5091509150818015612e0457506020815110155b8015610f8b57508051630b135d3f60e11b90612e299083016020908101908401614582565b149695505050505050565b60008581526009602090815260408083206001600160a01b0388168452600381019092529091205460ff1615612ea1576040517f71c6af490000000000000000000000000000000000000000000000000000000081526001600160a01b0386166004820152602401610f76565b6001600160a01b03851660009081526003820160205260409020805460ff1916600117905560ff8416612eed5782816000016000828254612ee29190614497565b90915550612f5f9050565b60001960ff851601612f0d5782816001016000828254612ee29190614497565b60011960ff851601612f2d5782816002016000828254612ee29190614497565b6040517f06b337c200000000000000000000000000000000000000000000000000000000815260040160405180910390fd5b505050505050565b600081600003612f7957506000919050565b60006001612f86846135de565b901c6001901b90506001818481612f9f57612f9f6145b2565b048201901c90506001818481612fb757612fb76145b2565b048201901c90506001818481612fcf57612fcf6145b2565b048201901c90506001818481612fe757612fe76145b2565b048201901c90506001818481612fff57612fff6145b2565b048201901c90506001818481613017576130176145b2565b048201901c9050600181848161302f5761302f6145b2565b048201901c905061179e81828581613049576130496145b2565b04613672565b60005b818310156130a95760006130668484613688565b60008781526020902090915065ffffffffffff86169082015465ffffffffffff161115613095578092506130a3565b6130a0816001614497565b93505b50613052565b509392505050565b60008060f883901c602f811180156130cc5750603a8160ff16105b156130e157600194602f199091019350915050565b8060ff1660401080156130f7575060478160ff16105b1561310c576001946036199091019350915050565b8060ff166060108015613122575060678160ff16105b15613137576001946056199091019350915050565b50600093849350915050565b600063ffffffff821115611df1576040516306dfcc6560e41b81526020600482015260248101839052604401610f76565b606060ff831461318e57613187836136a3565b9050610b6a565b81805461319a906141b9565b80601f01602080910402602001604051908101604052809291908181526020018280546131c6906141b9565b80156132135780601f106131e857610100808354040283529160200191613213565b820191906000526020600020905b8154815290600101906020018083116131f657829003601f168201915b50505050509050610b6a565b80511561322f5780518082602001fd5b6040517f1425ea4200000000000000000000000000000000000000000000000000000000815260040160405180910390fd5b82546000908190801561339957600061327f87611e7960018561429d565b60408051808201909152905465ffffffffffff808216808452600160301b9092046001600160d01b0316602084015291925090871610156132ec576040517f2520601d00000000000000000000000000000000000000000000000000000000815260040160405180910390fd5b805165ffffffffffff808816911603613338578461330f88611e7960018661429d565b80546001600160d01b0392909216600160301b0265ffffffffffff909216919091179055613389565b6040805180820190915265ffffffffffff80881682526001600160d01b0380881660208085019182528b54600181018d5560008d81529190912094519151909216600160301b029216919091179101555b60200151925083915061273f9050565b50506040805180820190915265ffffffffffff80851682526001600160d01b0380851660208085019182528854600181018a5560008a815291822095519251909316600160301b02919093161792019190915590508161273f565b6000818152600960205260408120600281015460018201546134169190614497565b60008481526004602052604090205461343d90600160a01b900465ffffffffffff16611813565b11159392505050565b60008061345586868686611732565b90506134a3816134656007611960565b61346f6006611960565b6134796002611960565b60016134866007826146c5565b6134919060026147c2565b61349b919061429d565b181818611983565b506000818152600460205260409081902080547effffffffffffffffffffffffffffffffffffffffffffffffffffffffffffff16600160f81b179055517f789cf55be980739dad1d0699b93b58e806b51c9d96619bfa8fe0a28abaa7b30c90610ed99083815260200190565b600080807f7fffffffffffffffffffffffffffffff5d576e7357a4501ddfe92f46681b20a084111561354a57506000915060039050826135d4565b604080516000808252602082018084528a905260ff891692820192909252606081018790526080810186905260019060a0016020604051602081039080840390855afa15801561359e573d6000803e3d6000fd5b5050604051601f1901519150506001600160a01b0381166135ca575060009250600191508290506135d4565b9250600091508190505b9450945094915050565b600080608083901c156135f357608092831c92015b604083901c1561360557604092831c92015b602083901c1561361757602092831c92015b601083901c1561362957601092831c92015b600883901c1561363b57600892831c92015b600483901c1561364d57600492831c92015b600283901c1561365f57600292831c92015b600183901c15610b6a5760010192915050565b6000818310613681578161179e565b5090919050565b600061369760028484186145c8565b61179e90848416614497565b606060006136b0836136e2565b604080516020808252818301909252919250600091906020820181803683375050509182525060208101929092525090565b600060ff8216601f811115610b6a576040517fb3512b0c00000000000000000000000000000000000000000000000000000000815260040160405180910390fd5b60006020828403121561373557600080fd5b81356001600160e01b03198116811461179e57600080fd5b60006020828403121561375f57600080fd5b5035919050565b60005b83811015613781578181015183820152602001613769565b50506000910152565b600081518084526137a2816020860160208601613766565b601f01601f19169290920160200192915050565b60208152600061179e602083018461378a565b6001600160a01b0381168114610b8157600080fd5b634e487b7160e01b600052604160045260246000fd5b604051601f8201601f1916810167ffffffffffffffff8111828210171561381d5761381d6137de565b604052919050565b600067ffffffffffffffff82111561383f5761383f6137de565b50601f01601f191660200190565b600061386061385b84613825565b6137f4565b905082815283838301111561387457600080fd5b828260208301376000602084830101529392505050565b600082601f83011261389c57600080fd5b61179e8383356020850161384d565b600080600080608085870312156138c157600080fd5b84356138cc816137c9565b935060208501356138dc816137c9565b925060408501359150606085013567ffffffffffffffff8111156138ff57600080fd5b61390b8782880161388b565b91505092959194509250565b600067ffffffffffffffff821115613931576139316137de565b5060051b60200190565b600082601f83011261394c57600080fd5b8135602061395c61385b83613917565b8083825260208201915060208460051b87010193508684111561397e57600080fd5b602086015b848110156139a3578035613996816137c9565b8352918301918301613983565b509695505050505050565b600082601f8301126139bf57600080fd5b813560206139cf61385b83613917565b8083825260208201915060208460051b8701019350868411156139f157600080fd5b602086015b848110156139a357803583529183019183016139f6565b600082601f830112613a1e57600080fd5b81356020613a2e61385b83613917565b82815260059290921b84018101918181019086841115613a4d57600080fd5b8286015b848110156139a357803567ffffffffffffffff811115613a715760008081fd5b613a7f8986838b010161388b565b845250918301918301613a51565b60008060008060808587031215613aa357600080fd5b843567ffffffffffffffff80821115613abb57600080fd5b613ac78883890161393b565b95506020870135915080821115613add57600080fd5b613ae9888389016139ae565b94506040870135915080821115613aff57600080fd5b50613b0c87828801613a0d565b949793965093946060013593505050565b634e487b7160e01b600052602160045260246000fd5b60088110613b5157634e487b7160e01b600052602160045260246000fd5b9052565b60208101610b6a8284613b33565b60008060408385031215613b7657600080fd5b823591506020830135613b88816137c9565b809150509250929050565b803560ff8116811461105257600080fd5b60008060408385031215613bb757600080fd5b82359150613bc760208401613b93565b90509250929050565b60008083601f840112613be257600080fd5b50813567ffffffffffffffff811115613bfa57600080fd5b602083019150836020828501011115613c1257600080fd5b9250929050565b600080600080600080600060c0888a031215613c3457600080fd5b87359650613c4460208901613b93565b95506040880135613c54816137c9565b9450606088013567ffffffffffffffff80821115613c7157600080fd5b613c7d8b838c01613bd0565b909650945060808a0135915080821115613c9657600080fd5b613ca28b838c0161388b565b935060a08a0135915080821115613cb857600080fd5b50613cc58a828b0161388b565b91505092959891949750929550565b600080600080600060808688031215613cec57600080fd5b85359450613cfc60208701613b93565b9350604086013567ffffffffffffffff80821115613d1957600080fd5b613d2589838a01613bd0565b90955093506060880135915080821115613d3e57600080fd5b50613d4b8882890161388b565b9150509295509295909350565b65ffffffffffff81168114610b8157600080fd5b600060208284031215613d7e57600080fd5b813561179e81613d58565b60008060008060608587031215613d9f57600080fd5b84359350613daf60208601613b93565b9250604085013567ffffffffffffffff811115613dcb57600080fd5b613dd787828801613bd0565b95989497509550505050565b60008060008060808587031215613df957600080fd5b843567ffffffffffffffff80821115613e1157600080fd5b613e1d8883890161393b565b95506020870135915080821115613e3357600080fd5b613e3f888389016139ae565b94506040870135915080821115613e5557600080fd5b613e6188838901613a0d565b93506060870135915080821115613e7757600080fd5b508501601f81018713613e8957600080fd5b61390b8782356020840161384d565b600060208284031215613eaa57600080fd5b813561179e816137c9565b60008151808452602080850194506020840160005b83811015613ee657815187529582019590820190600101613eca565b509495945050505050565b7fff000000000000000000000000000000000000000000000000000000000000008816815260e060208201526000613f2c60e083018961378a565b8281036040840152613f3e818961378a565b90508660608401526001600160a01b03861660808401528460a084015282810360c0840152613f6d8185613eb5565b9a9950505050505050505050565b60008060008060808587031215613f9157600080fd5b84359350613fa160208601613b93565b92506040850135613fb1816137c9565b9150606085013567ffffffffffffffff8111156138ff57600080fd5b600080600060608486031215613fe257600080fd5b8335613fed816137c9565b925060208401359150604084013567ffffffffffffffff81111561401057600080fd5b61401c8682870161388b565b9150509250925092565b600080600080600060a0868803121561403e57600080fd5b8535614049816137c9565b94506020860135614059816137c9565b9350604086013567ffffffffffffffff8082111561407657600080fd5b61408289838a016139ae565b9450606088013591508082111561409857600080fd5b6140a489838a016139ae565b93506080880135915080821115613d3e57600080fd5b600080600080606085870312156140d057600080fd5b84356140db816137c9565b935060208501359250604085013567ffffffffffffffff811115613dcb57600080fd5b60006020828403121561411057600080fd5b813563ffffffff8116811461179e57600080fd5b6000806040838503121561413757600080fd5b8235614142816137c9565b946020939093013593505050565b600080600080600060a0868803121561416857600080fd5b8535614173816137c9565b94506020860135614183816137c9565b93506040860135925060608601359150608086013567ffffffffffffffff8111156141ad57600080fd5b613d4b8882890161388b565b600181811c908216806141cd57607f821691505b6020821081036141ed57634e487b7160e01b600052602260045260246000fd5b50919050565b634e487b7160e01b600052603260045260246000fd5b60006020828403121561421b57600080fd5b815167ffffffffffffffff81111561423257600080fd5b8201601f8101841361424357600080fd5b805161425161385b82613825565b81815285602083850101111561426657600080fd5b611c00826020830160208601613766565b8183823760009101908152919050565b634e487b7160e01b600052601160045260246000fd5b81810381811115610b6a57610b6a614287565b65ffffffffffff8281168282160390808211156142cf576142cf614287565b5092915050565b6000602082840312156142e857600080fd5b815161179e81613d58565b65ffffffffffff8181168382160190808211156142cf576142cf614287565b60008151808452602080850194506020840160005b83811015613ee65781516001600160a01b031687529582019590820190600101614327565b60008282518085526020808601955060208260051b8401016020860160005b8481101561439957601f1986840301895261438783835161378a565b9884019892509083019060010161436b565b5090979650505050505050565b6080815260006143b96080830187614312565b82810360208401526143cb8187613eb5565b905082810360408401526143df818661434c565b91505082606083015295945050505050565b838152606081016144056020830185613b33565b826040830152949350505050565b60006020828403121561442557600080fd5b8151801515811461179e57600080fd5b84815260ff84166020820152826040820152608060608201526000610f8b608083018461378a565b85815260ff8516602082015283604082015260a06060820152600061448560a083018561378a565b82810360808401526113fe818561378a565b80820180821115610b6a57610b6a614287565b60006101208b835260206001600160a01b038c16818501528160408501526144d48285018c614312565b915083820360608501526144e8828b613eb5565b915083820360808501528189518084528284019150828160051b850101838c0160005b8381101561453957601f1987840301855261452783835161378a565b9486019492509085019060010161450b565b505086810360a088015261454d818c61434c565b9450505050508560c08401528460e0840152828103610100840152614572818561378a565b9c9b505050505050505050505050565b60006020828403121561459457600080fd5b5051919050565b8082028115828204841417610b6a57610b6a614287565b634e487b7160e01b600052601260045260246000fd5b6000826145e557634e487b7160e01b600052601260045260246000fd5b500490565b60a0815260006145fd60a0830188614312565b828103602084015261460f8188613eb5565b90508281036040840152614623818761434c565b60608401959095525050608001529392505050565b60c08152600061464b60c0830189614312565b828103602084015261465d8189613eb5565b90508281036040840152614671818861434c565b60608401969096525050608081019290925260a0909101529392505050565b828152604060208201526000611078604083018461378a565b600082516146bb818460208701613766565b9190910192915050565b60ff8181168382160190811115610b6a57610b6a614287565b600181815b808511156147195781600019048211156146ff576146ff614287565b8085161561470c57918102915b93841c93908002906146e3565b509250929050565b60008261473057506001610b6a565b8161473d57506000610b6a565b8160018114614753576002811461475d57614779565b6001915050610b6a565b60ff84111561476e5761476e614287565b50506001821b610b6a565b5060208310610133831016604e8410600b841016171561479c575081810a610b6a565b6147a683836146de565b80600019048211156147ba576147ba614287565b029392505050565b600061179e60ff84168361472156fea26469706673582212204e0ee810c4ab720aedb4067cd17b2dc9cb0558707625206d7d36473b65263b1364736f6c63430008180033",
  "linkReferences": {},
  "deployedLinkReferences": {}
}